:020000040800F2
:100000000000012009000008DFF81400016841F435
:100010007001016072B60348804703480047000042
:1000200088ED00E0F13800082D000008DFF80CD062
:1000300000F01CFB004800474D490008000001206B
:1000400072B634483449026841EA0201016033481B
:100050004FF00101016032484168016001688A88FF
:100060004FF0100342EA03028A80D1F800C00CF17D
:10007000240C0CF1040CBCE8FF008CF309884FF051
:10008000020C8CF31488AE4662B63047EFF3108052
:1000900072B67047EFF3108062B6704780F3108835
:1000A000704720484FF0805101607047EFF3108C8B
:1000B00072B61D4A126822B12DE900509047BDE882
:1000C0000050EFF309801EF0100F08BF20ED108BD9
:1000D00040F804ED20E9F01F114D4FF010082E6894
:1000E0003060B78827EA0807B78068682860878883
:1000F00047EA080787800168B1E8F01F51F804EB70
:100100001EF0100F08BFB1EC108B81F309888CF33F
:100110001088704720ED00E00000FFFF7C04002005
:100120004404002004ED00E0800400202DE9F05F8D
:100130000546002092469B46884606468146402456
:100140001BE0284641464746224600F0F0F8534659
:100150005A46C01A914110D311461846224600F063
:10016000D7F82D1A67EB01084F46224601200021DF
:1001700000F0CEF817EB00094E41201EA4F1010457
:10018000DFDC484631462A464346BDE8F09F40EA58
:1001900001039B0703D009E008C9121F08C0042A05
:1001A000FAD203E011F8013B00F8013B521EF9D2EC
:1001B0007047D2B201E000F8012B491EFBD2704714
:1001C0000022F6E710B513460A4604461946FFF723
:1001D000F0FF204610BD2DE9F04D81EA030404F044
:1001E000004B21F0004514464FF0000A23F0004177
:1001F00050EA050220D054EA01021DD0C5F30A5787
:100200000246C5F31303C1F31300C1F30A5640F4C9
:10021000801543F48013A7EB0608101BD64608F29E
:10022000FD3873EB050002D308F1010801E09218D4
:100230005B41B8F1000F03DA00200146BDE8F08D04
:1002400000204FF48011064684460EE0171B73EB26
:10025000050705D3121B63EB050306434CEA010CAB
:1002600049084FEA300092185B4150EA0107EDD18E
:1002700052EA030012D082EA040083EA050108432F
:1002800005D0101BAB4106D20122002306E000225C
:100290004FF0004302E06FF0010253101AEB06002A
:1002A0004CEB085110EB0A0041EB0B01BDE8F04D9F
:1002B00000F04DB8C1F30A52C1F3130140F2FF330D
:1002C00041F480119A4202DA00200146704740F260
:1002D00033439A42A2F2334202DC524200F027B882
:1002E00000F016B830B50B4601460020202201244C
:1002F00009E021FA02F59D4205D303FA02F5491BF4
:1003000004FA02F52844151EA2F10102F1DC30BD09
:10031000202A04DB203A00FA02F1002070479140C5
:10032000C2F1200320FA03F3194390407047202ABA
:1003300004DB203A21FA02F00021704721FA02F38F
:10034000D040C2F12002914008431946704710B5D1
:10035000141E73F1000408DA401C41F100019218E8
:100360005B411A4301D120F0010010BD2DE9F04D91
:1003700092469B4611B1B1FA81F202E0B0FA80F2E6
:1003800020329046FFF7C4FF04460F4640EA0A00B9
:1003900041EA0B0153465A46084313D0114653EA2B
:1003A000010019D0C8F140025046FFF7C0FF0546D2
:1003B0000E46504659464246FFF7AAFF084305D06D
:1003C000012004E020463946BDE8F08D00200543B9
:1003D00046EAE0762C4337430A986305E40AA0EB2B
:1003E00008000022FD0A44EA47540A3002D50020E2
:1003F0000146E9E7010510196941DDE908450019E1
:100400006941BDE8F04DA2E72DE9FE4F804681EA43
:100410000300C00F0C46009021F0004123F000457E
:10042000B8EB0200A94105D24046214690461C4641
:100430000B46024623F00040104347D0270DC7F378
:100440000A00C3F30A510290401A019040286BDA67
:10045000C3F3130040F4801B0098924620B10023A0
:10046000D2EB030A63EB0B0B01985946C0F1400233
:100470005046FFF74DFF06460D4650465946019A35
:1004800000F006F910EB08006141002487EA1152E0
:1004900084EAE7731A4340D0009A62B3019A012AB2
:1004A0004FEA075215DC001B61EB02014FF00042DE
:1004B00002EA0752CDE90042001C41F580113246A4
:1004C0002B46FFF753FF03B0BDE8F08F40462146AF
:1004D000F9E7001B61EB0201001C41F580130018D5
:1004E0005B412018A2F5001747EB030140EAD570E5
:1004F000B6196D4111E06D084FEA360645EAC07540
:100500004FEA0752001B61EB0201001C41F580110C
:1005100049084FEA30000019514132462B4603B0DA
:10052000BDE8F04FFFF713BF009801224000002301
:10053000D0EB020263EBE073009821464FEAE074CF
:10054000B8EB000061EB0401E9E783F000435BE7EF
:1005500081F0004158E72DE9FE4F81EA030404F0E1
:10056000004421F0004100944FF0000B23F00043C1
:1005700050EA01045ED052EA03045BD0C3F30A548C
:10058000C1F30A552C44A4F2F3340194A0FB0254A5
:10059000C1F3130141F48011C3F3130343F4801337
:1005A00001FB024400FB034E840A970A44EA81548B
:1005B00047EA8357A4FB076802958D0A05FB078568
:1005C0004FEA932C04FB0C542705029D4FEA065872
:1005D00047EA1637B5EB08056EEB070C870E920E4F
:1005E00047EA811742EA8312A7FB0201B6EB0B012F
:1005F00064EB00042B0D43EA0C335E1844EB1C50F3
:10060000DA465146E7FB0201C5F313044FEA0B3308
:1006100043EA14534FEA0432019C43EA0603A4F16F
:100620000C040294009CCDE900B4FFF79FFE03B0D8
:10063000BDE8F08F00200146F9E7000030B5041E48
:1006400071F1000404DB4FF00044404264EB01010F
:10065000141E73F1000405DB1C464FF000435242A8
:1006600063EB0403994208BF904230BD064C074D2E
:1006700006E0E06840F0010394E807009847103472
:10068000AC42F6D3FFF7D6FC4CB000087CB00008B3
:10069000202A06DBCB17203A41FA02F043EAE07346
:1006A00006E041FA02F3D040C2F120029140084333
:1006B0001946704770B58C1810F8015B15F00703E8
:1006C00001D110F8013B2A1106D110F8012B03E0EB
:1006D00010F8016B01F8016B5B1EF9D12B0705D4F3
:1006E0000023521E0DD401F8013BFAE710F8013B3C
:1006F000CB1A921C03E013F8015B01F8015B521E58
:10070000F9D5A142D8D3002070BD000010B586B045
:1007100000240320ADF8040007A0049009480090CD
:100720004FF4806003906946074802F075FA04466A
:10073000204606B010BD000050656E645F546173C2
:100740006B000000413200080C04002010B586B098
:1007500000240320ADF8040007A00490094800908D
:100760004FF4806003906946074802F055FA04464A
:10077000204606B010BD0000506F73745F54617363
:100780006B000000453300081004002078B50346D4
:10079000002200240020CBE0012696400D6805EAE7
:1007A0000604002C72D04D68022D02D04D68122D27
:1007B00013D1D60803F1200555F826005507EE0E93
:1007C0000F25B540A8435607F60E0D69B5402843DE
:1007D000D60803F1200545F82600186856000325C1
:1007E000B540A8430D7905F003055600B5402843F0
:1007F00018604D68012D08D04D68022D05D04D6858
:10080000112D02D04D68122D13D198685600032582
:10081000B540A8435600CD68B54028439860586855
:1008200001259540A8430D79C5F30015954028434F
:100830005860D86856000325B540A84356008D6817
:10084000B5402843D8604D6805F08055B5F1805F0C
:100850006DD100BF394D2D6E45F00105374E35661F
:1008600035462D6E05F00105009500BF00BF4FEA2B
:10087000B635960855F8260095072E0F0F25B5407A
:10088000A843B3F1904F02D1002515E04FE02C4D65
:10089000AB4201D101250FE02A4DAB4201D1022527
:1008A0000AE0294DAB4201D1032505E0274DAB42BB
:1008B00001D1042500E007259607360FB5402843EF
:1008C000234D960845F82600224D2868A0434D6820
:1008D00005F48035B5F5803F00D120431D4D2860DB
:1008E0002D1D2868A0434D6805F40035B5F5003F7F
:1008F00000D12043174D2D1D28602D1D2868A043D1
:100900004D6805F48015B5F5801F00D12043114DC9
:10091000083528602D1D2868A0434D6805F4001592
:10092000B5F5001F00D120430A4D0C352860521C3C
:100930000D68D540002D7FF42FAF78BD0010024028
:100940000004004800080048000C0048001000485F
:100950000800014000040140024613690B400BB13E
:10096000012000E0002070470AB1816100E081624F
:10097000704710B502F0A2FB10BD10B5032000F0C7
:100980006BF8002000F004F800F016F8002010BD0D
:1009900070B50446074800684FF47A71B0FBF1F572
:1009A000284601F0AFF800222146501E00F015F84D
:1009B000002070BD00040020704701460846002852
:1009C00009DB00F01F0301229A4043099B0003F159
:1009D000E023C3F8002100BF70472DE9F05F804697
:1009E0000D461646002703F0B1FA074639462A4657
:1009F000334601F00700C0F1070ABAF1040F02D92B
:100A00004FF0040A01E0C0F1070AD14600F1040AE0
:100A1000BAF1070F02D24FF0000A01E0A0F1030A79
:100A2000D4464FF0010A0AFA09FAAAF1010A0AEAC1
:100A3000020A0AFA0CFA4FF0010B0BFA0CFBABF1AD
:100A4000010B0BEA030B4AEA0B042146404603F074
:100A500085FABDE8F09F000000BF00F00702064BDA
:100A600019684FF6FF031940044B0B4343EA022178
:100A7000014B196000BF70470CED00E00000FA0563
:100A800002460021B2F5007F29D11D48006800F41C
:100A9000C060B0F5007F31D01948006820F4C06014
:100AA00040F40070164B186016480068164BB0FBF7
:100AB000F3F0322300FB03F100E0491E31B110488E
:100AC000406900F48060B0F5806FF6D00C48406952
:100AD00000F48060B0F5806F10D1032070470848A3
:100AE000006800F4C060B0F5806F07D0044800686B
:100AF00020F4C06040F48060014B18600020EDE7F6
:100B0000007000400004002040420F0002480068CE
:100B100000F4C060704700000070004003480068A7
:100B200040F4807001490860704700000070004088
:100B30002DE9F8430446002600270025A846208812
:100B400000F40060B0F5006F26D1606C68B1B0F5BC
:100B5000000F03D0B0F5400F0ED10CE0D448C068B0
:100B600040F48030D249C86008E00021201D02F026
:100B70003DFC054602E001E0012500BF00BF55B97C
:100B8000CB488830006820F44000616C0843C849B5
:100B9000C1F8880000E0A846206800F40030B0F5F5
:100BA000003F74D14FF00009C148806D00F08050C3
:100BB00078B900BFBE48806D40F08050BC49886560
:100BC0000846806D00F08050009000BF00BF4FF0DD
:100BD0000109B848006840F48070B6490860FFF722
:100BE000C8FE074606E0FFF7C4FEC01B022801D975
:100BF000032505E0AF48006800F480700028F2D0BB
:100C000000BF7DBBAA489030006800F44076CEB1AA
:100C1000A06DB04216D0A6489030006820F440760F
:100C2000A348D0F8900040F48030A149C1F890006A
:100C30000846D0F8900020F48030C1F890000846B3
:100C4000C0F8906006F00100A8B1FFF792FE0746D9
:100C500009E0FFF78EFEC01B41F28831884202D9BD
:100C6000032507E016E092489030006800F002008B
:100C70000028EED000BF5DB98D489030006820F4A8
:100C80004070A16D08438A49C1F8900003E00CE070
:100C9000A84600E0A846B9F1010F05D18448806D4F
:100CA00020F080508249886500BF207800F0010064
:100CB00048B17F488830006820F00300216A08436B
:100CC0007B49C1F88800207800F00200022809D191
:100CD00077488830006820F00C00616A0843744946
:100CE000C1F88800207800F00400042809D1704879
:100CF0008830006820F03000A16A08436C49C1F8D0
:100D00008800207800F02000202809D16848883029
:100D1000006820F44060E16A08436549C1F8880032
:100D2000208800F40070B0F5007F09D16048883059
:100D3000006820F44020E16B08435D49C1F8880059
:100D4000208800F48060B0F5806F09D15848883061
:100D5000006820F44010216C08435549C1F8880010
:100D6000207800F04000402809D1514888300068C0
:100D700020F44050216B08434D49C1F88800207889
:100D800000F08000802809D149488830006820F4AC
:100D90004040616B08434649C1F88800208800F450
:100DA0008070B0F5807F09D141488830006820F418
:100DB0004030A16B08433E49C1F88800206800F428
:100DC0000020B0F5002F1FD139488830006820F08E
:100DD0004060A16C0843364988310860A06CB0F1CE
:100DE000006F06D13248C06840F480103049C860B6
:100DF0000AE0A06CB0F1806F06D10121201D02F045
:100E0000F5FA054605B1A846206800F48020B0F543
:100E1000802F1FD126488830006820F04060E16CA8
:100E20000843234988310860E06CB0F1006F06D1B7
:100E30001F48C06840F480101D49C8600AE0E06C9B
:100E4000B0F1806F06D10121201D02F0CFFA0546D6
:100E500005B1A846208800F48040B0F5804F14D139
:100E600013488830006820F04050216D0843104935
:100E700088310860206DB0F1805F06D10221201D0D
:100E800002F0B4FA054605B1A846208800F40040F7
:100E9000B0F5004F09D106488830006820F0804046
:100EA000616D08430249C1F888004046BDE8F883F7
:100EB000001002400070004070B504460D460CB9A9
:100EC000012070BD5348006800F00700A8420ED210
:100ED0005048006820F0070028434E490860084643
:100EE000006800F00700A84201D00120E9E720785F
:100EF00000F00100002840D06068032806D1464871
:100F0000006800F00070D8B90120DAE760680228B4
:100F100006D14148006800F4003088B90120D0E7CC
:100F2000606830B93C48006800F0020040B9012018
:100F3000C7E73948006800F4806008B90120C0E7BD
:100F40003548806820F003006168084332498860B2
:100F5000FFF70FFD064608E0FFF70BFD801B41F28F
:100F60008831884201D90320ABE72B48806800F024
:100F70000C006168B0EB810FEED1207800F0020028
:100F8000022807D12448806820F0F000A1680843B7
:100F9000214988601F48006800F00700A8420ED968
:100FA0001C48006820F0070028431A4908600846DA
:100FB000006800F00700A84201D0012081E72078F6
:100FC00000F00400042807D11348806820F4E06092
:100FD000E168084310498860207800F0080008287C
:100FE00008D10D48806820F46050216940EAC100B2
:100FF0000949886000F03CF807498968C1F303118A
:10100000064A515CC840064908600020FFF7C0FC52
:10101000002056E700200240001002403C64000817
:101020000004002001480068704700000004002010
:1010300000B5FFF7F7FF04498968C1F30221034AAD
:10104000515CC84000BD0000001002404C64000824
:1010500000B5FFF7E7FF04498968C1F3C221034ADD
:10106000515CC84000BD0000001002404C64000804
:10107000F0B50021002300240225022200203B4E6F
:10108000B66806F00C065EB1384EB66806F00C067F
:101090000C2E1ED1354EF66806F00306012E18D12F
:1010A000324E366806F008062EB9304E9436366851
:1010B000C6F3032103E02D4E3668C6F303112C4E10
:1010C00056F82110294EB66806F00C0686B9084677
:1010D0000EE0264EB66806F00C06042E01D1254817
:1010E00006E0224EB66806F00C06082E00D1224813
:1010F0001E4EB66806F00C060C2E36D11B4EF66856
:1011000006F00304194EF668C6F30216721C012C91
:1011100019D0022C02D0032C14D109E0154EB6FBD5
:10112000F2F6124FFF68C7F3062706FB07F313E03A
:10113000114EB6FBF2F60D4FFF68C7F3062706FB0C
:1011400007F309E000BFB1FBF2F6084FFF68C7F3F1
:10115000062706FB07F300BF00BF044EF668C6F380
:101160004166761C7500B3FBF5F0F0BD001002403F
:10117000546400080024F40000127A00F8B5044614
:101180000CB90120F8BD207800F0100010286ED1B5
:10119000F848806800F00C00002869D1F548006824
:1011A00000F0020018B1A06908B90120EAE7F1488F
:1011B000216A006800F0080020B1EE48006800F0E5
:1011C000F00005E0EB489430006800F4706000091E
:1011D00081421FD9206A02F0CFF908B10120D1E77E
:1011E00000BFE448006840F00800E2490860084693
:1011F000006820F0F000216A0843DE49086000BF63
:101200000846406820F47F40E16940EA0120D9495E
:1012100048601EE000BFD748006840F00800D5498C
:1012200008600846006820F0F000216A0843D149B0
:10123000086000BF0846406820F47F40E16940EA4A
:101240000120CC494860206A02F096F908B10120DB
:1012500098E7FFF70DFFC7498968C1F30311C64A34
:10126000515CC840C54908600020FFF791FB4AE087
:10127000A06980B3BF48006840F00100BD49086024
:10128000FFF777FB054606E0FFF773FB401B0228DC
:1012900001D9032076E7B748006800F00200002873
:1012A000F2D000BFB348006840F00800B1490860C0
:1012B0000846006820F0F000216A0843AD49086044
:1012C00000BF0846406820F47F40E16940EA012001
:1012D000A849486017E0FFE7A648006820F0010031
:1012E000A4490860FFF745FB054606E0FFF741FB10
:1012F000401B022801D9032044E79E48006800F003
:1013000002000028F2D1207800F00100002868D007
:101310009848806800F00C0008280BD09548806839
:1013200000F00C000C280ED19248C06800F00300B9
:10133000032808D18F48006800F4003088B3606843
:1013400078BB01201EE700BF6068B0F5803F06D182
:101350008848006840F48030864908601AE0606878
:10136000B0F5A02F0BD18348006840F4802081495C
:1013700008600846006840F4803008600AE07D4854
:10138000006820F480307B4908600846006820F43B
:101390008020086000BF606890B1FFF7EAFA054658
:1013A00007E01EE0FFF7E5FA401B642801D903209F
:1013B000E8E67048006800F400300028F2D010E041
:1013C000FFF7D7FA054606E0FFF7D3FA401B64287B
:1013D00001D90320D6E66748006800F400300028F1
:1013E000F2D1207800F0020002285ED161488068C6
:1013F00000F00C0004280BD05E48806800F00C0060
:101400000C2818D15B48C06800F00300022812D1F4
:101410005848006800F4806018B1E06808B90120FD
:10142000B0E65448406820F0F850217C40EA016062
:101430005049486039E0E06800B34E48006840F425
:1014400080704C490860FFF794FA054606E0FFF704
:1014500090FA401B022801D9032093E64548006812
:1014600000F480600028F2D04248406820F0F85034
:10147000217C40EA01603F49486016E03D48006831
:1014800020F480703B490860FFF773FA054606E0D8
:10149000FFF76FFA401B022801D9032072E6354896
:1014A000006800F480600028F2D1207800F0080085
:1014B000082836D16069D0B12E489430006840F0D9
:1014C00001002C49C1F89400FFF753FA054606E0E5
:1014D000FFF74FFA401B022801D9032052E62548A6
:1014E0009430006800F002000028F1D019E0214893
:1014F0009430006820F001001E49C1F89400FFF705
:1015000038FA054606E0FFF734FA401B022801D9F5
:10151000032037E617489430006800F002000028E6
:10152000F1D1207800F0040004286ED10026114883
:10153000806D00F0805070B900BF0E48806D40F0A3
:1015400080500C4988650846806D00F080500090FE
:1015500000BF00BF01260A48006800F48070F0B99F
:101560000748006840F4807005490860FFF701FAF9
:1015700005460EE0001002403C6400080004002014
:1015800000700040FFF7F5F9401B022801D9032045
:10159000F8E59D48006800F480700028F2D000BF94
:1015A000A068012808D19948006840F001009749D7
:1015B0009039C1F8900021E0A06805280FD1934828
:1015C000006840F0040091499039C1F89000084645
:1015D000D0F8900040F00100C1F890000EE08B4878
:1015E000006820F0010089499039C1F89000084650
:1015F000D0F8900020F00400C1F8900000BFA0686F
:10160000A0B1FFF7B6F9054609E02DE0FFF7B1F903
:10161000401B41F28831884201D90320B2E57B4862
:10162000006800F002000028F0D012E0FFF7A1F9F6
:10163000054608E0FFF79DF9401B41F288318842DA
:1016400001D903209EE57148006800F002000028DF
:10165000F0D1012E07D16D489038806D20F0805078
:101660006A499039886500BF207800F02000202862
:1016700038D1606AD8B165480830006840F0010090
:1016800062499039C1F89800FFF773F9054606E002
:10169000FFF76FF9401B022801D9032072E55B4870
:1016A0000830006800F002000028F1D01AE0574826
:1016B0000830006820F0010054499039C1F89800C2
:1016C000FFF757F9054606E0FFF753F9401B0228DC
:1016D00001D9032056E54D480830006800F00200AB
:1016E0000028F1D1A06AE8B348489038806800F03B
:1016F0000C000C2874D0A06A022853D143489038BB
:10170000006820F08070414990390860FFF731F996
:10171000054606E0FFF72DF9401B022801D90320FA
:1017200030E53A489038006800F000700028F1D1A8
:10173000206B401E0101606B41EA0020E16A084312
:10174000A18F0122C2EB510140EA41514020005DCE
:10175000C2EB500041EA40613820005D41EAC060C0
:101760002A4900E04EE09039C8600846006840F021
:10177000807008600846C06840F08070C860FFF75D
:10178000F8F8054606E0FFF7F4F8401B022801D9F7
:101790000320F7E41D489038006800F0007000282E
:1017A000F1D02FE019489038006820F08070174978
:1017B000903908600846006800F0006020B90846CB
:1017C000C06820F00300C86010489038C068104915
:1017D00008400E499039C860FFF7CBF8054607E08E
:1017E0000EE0FFF7C6F8401B022801D90320C9E428
:1017F00006489038006800F000700028F1D101E040
:101800000120BFE40020BDE40070004090100240C1
:10181000FFFFEEFE70B504460CB9012070BD606A92
:1018200000B900BF0021A16294F85D0028B9002032
:1018300084F85C00204600F04DF8022084F85D003A
:101840002068006820F0400021680860E068B0F57A
:10185000E06F01D9002501E04FF48055E068B0F554
:10186000706F05D0E068B0F5E06F01D00021A16293
:10187000206B40B9E068B0F5E06F02D90221216326
:1018800001E001212163D4E90101084321690843F2
:1018900061690843218B01F400710843E169084341
:1018A000216A0843A16A0843216808600421A069ED
:1018B00001EA1040616A0843616B0843E16808432C
:1018C00028432168486000202066012084F85D00DC
:1018D0000020A3E710B586B0044618492068884266
:1018E0002AD100BF1648806D40F4804014498865B5
:1018F0000846806D00F48040009000BF00BF0820C3
:101900000190022002900020039003200490052003
:10191000059001A90B48FEF739FF4FF400500190E4
:1019200002200290002003900320049005200590DF
:1019300001A90548FEF72AFF06B010BD0038004097
:101940000010024000080048000400482DE9F84358
:1019500004460D4617461E464FF00008C14600BF1C
:1019600094F85C00012802D10220BDE8F883012030
:1019700084F85C0000BFFEF7FCFF804694F85D0031
:10198000012802D04FF00209B2E005B117B94FF0BB
:101990000109ADE0032084F85D0000202066A56306
:1019A000A787E7872064A4F84400A4F846002065D0
:1019B000E064A068B0F5004F05D12068006840F4ED
:1019C0008040216808602068006800F040004028DE
:1019D00005D02068006840F0400021680860E06899
:1019E000B0F5E06F2AD9606810B1E08F012806D108
:1019F00028882168C860AD1CE08F401EE08719E090
:101A00002068806800F00200022807D12888216839
:101A1000C860AD1CE08F401EE0870BE03EB1701C3B
:101A200040B1FEF7A6FFA0EB0800B04202D34FF092
:101A300003095DE0E08F0028E2D13FE0606810B16B
:101A4000E08F012811D1E08F012807D9288821686B
:101A5000C860AD1CE08F801EE08706E015F8010B22
:101A600021680873E08F401EE08724E020688068CA
:101A700000F00200022812D1E08F012807D928883F
:101A80002168C860AD1CE08F801EE08713E015F868
:101A9000010B21680873E08F401EE0870BE03EB128
:101AA000701C40B1FEF765FFA0EB0800B04202D306
:101AB0004FF003091CE0E08F0028D7D142463146A1
:101AC000204601F0B7FD08B120202066A06850B97B
:101AD00000BF002000902068C068009020688068E7
:101AE000009000BF00BF206E08B14FF0010900BF99
:101AF000012084F85D0000BF002084F85C0000BF76
:101B0000484632E770B504462546681EB0F1807F2E
:101B100001D301200FE0681E4FF0E02148610F2142
:101B20004FF0FF3002F01AFA00204FF0E0218861F8
:101B300007200861002070BD10B504460CB90120D3
:101B400010BDA06900B100E000BF94F8710028B991
:101B5000002084F87000204600F02AF8242084F841
:101B600071002068006820F00100216808602046AC
:101B700001F09EFF012800D1E2E7606A10B1204623
:101B800001F0E0FE2068406820F490402168486041
:101B90002068806820F02A0021688860206800683A
:101BA00040F0010021680860204601F047FFC7E7C8
:101BB00010B586B0044654492068884224D100BF3D
:101BC0005248C06D40F001005049C8650846C06DDC
:101BD00000F00100009000BF00BF03200190022030
:101BE000029000200390032004900820059001A992
:101BF0004748FEF7CBFD002211464620FEF7EDFEDA
:101C00004620FEF7DAFE7CE042492068884226D171
:101C100000BF3E48006E40F480403C4908660846DC
:101C2000006E00F48040009000BF00BF4FF4C06021
:101C300001900220029000200390032004900720CE
:101C4000059001A94FF09040FEF7A0FD002211463B
:101C50002520FEF7C2FE2520FEF7AFFE51E02E49FB
:101C60002068884225D100BF2848806D40F40030AC
:101C7000264988650846806D00F40030009000BF5A
:101C800000BF0C200190022002900020039003204E
:101C900004900720059001A94FF09040FEF776FDD3
:101CA000002211462620FEF798FE2620FEF785FE2C
:101CB00027E01A492068884223D100BF1348806D6D
:101CC00040F48020114988650846806D00F480202A
:101CD000009000BF00BF3020019002200290002041
:101CE0000390032004900720059001A90848FEF7FF
:101CF0004DFD002211462720FEF76FFE2720FEF73C
:101D00005CFE06B010BD00000080004000100240E4
:101D100000080048003801400044004000480040EE
:101D20002DE9F84304460D4616461F464FF00009BC
:101D300094F87100202855D105B116B90120BDE8ED
:101D4000F88300BF94F87000012801D10220F6E763
:101D5000012084F8700000BF00206067212084F813
:101D60007100FEF706FE8146A4F85060A4F85260A8
:101D700021E04B46002280212046009702F09EF889
:101D800008B10320DBE7A068B0F5805F0AD12069C5
:101D900040B9A846B8F80000C0F3080021680885DB
:101DA000AD1C03E015F8010B21680885B4F852005A
:101DB000401EA4F85200B4F852000028D9D14B4676
:101DC000002240212046009702F078F808B1032055
:101DD000B5E7202084F8710000BF002084F870006F
:101DE00000BFACE70220AAE710B5FEF7C6FD01F080
:101DF000FFFC01F069F901F0F9F901F0C3F90748B6
:101E0000006802F07FFD00F0DDF84FF6FF7000F093
:101E100047F84FF478400249088010BD00040020C4
:101E2000F004002070B504460D4629462046FEF712
:101E300093FD012808D100BF29462046FEF78CFDFE
:101E40000128F9D0012070BD0020FCE72DE9F04108
:101E500004460D4616461F462A2000F0C5FA2012F9
:101E600000F0D0FAE0B200F0CDFA301200F0CAFA79
:101E7000F0B200F0C7FA2B2000F0B6FA281200F0FA
:101E8000C1FAE8B200F0BEFA381200F0BBFAF8B2BC
:101E900000F0B8FA2C2000F0A7FABDE8F0810000AD
:101EA000F8B505460020009028128DF80000E8B231
:101EB0008DF80100EF231A4600210846FFF7C6FF00
:101EC00000240DE09DF800000F4901F814009DF872
:101ED0000100012101EB44010B4A5054601C84B203
:101EE000B4F5107FEEDB012240210848FEF73CFDEF
:101EF000002606E04FF49061034800F033F9701CAF
:101F000086B2642EF6DBF8BDD40C00200008004831
:101F100000B587B000BF2848C06C40F002002649D9
:101F2000C8640846C06C00F00200019000BF00BF0A
:101F300000BF0846C06C40F00400C8640846C06C8E
:101F400000F00400019000BF00BF4FF40040029079
:101F50000120039004900220059002A91748FEF783
:101F600015FC00224FF400411448FEF7FDFCC02090
:101F700002900120039004900220059002A91048CD
:101F8000FEF704FC0022C0210D48FEF7EDFC002204
:101F90004FF400410948FEF7E7FC00228021084881
:101FA000FEF7E2FC0C2002F075FC012280210448BF
:101FB000FEF7DAFC07B000BD001002400004004844
:101FC0000008004810B5FFF7A3FF0C2002F062FCE8
:101FD000112000F009FA0C2002F05CFC362000F021
:101FE00003FA002000F00EFA3A2000F0FDF9652017
:101FF00000F008FAB22000F0F7F90C2000F002FA25
:102000000C2000F0FFF9002000F0FCF9332000F074
:10201000F9F9332000F0F6F9B72000F0E5F9722065
:1020200000F0F0F9BB2000F0DFF93D2000F0EAF904
:10203000C02000F0D9F92C2000F0E4F9C22000F013
:10204000D3F9012000F0DEF9C32000F0CDF919200A
:1020500000F0D8F9C42000F0C7F9202000F0D2F930
:10206000C62000F0C1F90F2000F0CCF9D02000F01C
:10207000BBF9A42000F0C6F9A12000F0C3F9E020CC
:1020800000F0B2F9D02000F0BDF9042000F0BAF958
:102090000D2000F0B7F9112000F0B4F9132000F082
:1020A000B1F92B2000F0AEF93F2000F0ABF954203D
:1020B00000F0A8F94C2000F0A5F9182000F0A2F9D2
:1020C0000D2000F09FF90B2000F09CF91F2000F07C
:1020D00099F9232000F096F9E12000F085F9D0204D
:1020E00000F090F9042000F08DF90C2000F08AF93E
:1020F000112000F087F9132000F084F92C2000F063
:1021000081F93F2000F07EF9442000F07BF9512056
:1021100000F078F92F2000F075F91F2000F072F917
:102120001F2000F06FF9202000F06CF9232000F050
:1021300069F9212000F058F9292000F055F9EF2322
:102140001A4600210846FFF781FE4FF6FF70FFF7A1
:10215000A7FE0122D1030248FEF706FC10BD0000D5
:102160000004004870B504460D462946204601F09B
:1021700053FA70BD2DE9FE4F82468B4616461C462B
:10218000A6F12000C6B204EBD4714910C1F1F001F0
:10219000514503DBC4F1F001594501DABDE8FE8F7A
:1021A00004EBD4700AEB6000401E82B20BEB04001B
:1021B000401E83B2594650460094FFF747FE102C4C
:1021C00001D0202C4ED12046E31704EB5373DB10D3
:1021D00021464FEAE47C04EB5C7C4FEAEC0CA4EB78
:1021E000CC0CBCF1000F02D04FF0010C01E04FF01D
:1021F000000C6344224604EBD27C4FEA6C0C03FBD8
:102200000CF303F0FF09002529E0102C04D15748F6
:1022100000EB0610475D07E0202C04D1544800EB8A
:10222000C610475D00E0B9E74FF0000812E007F084
:10223000800018B14F480088029002E04E480088A4
:102240000290029800F0ECF87806070E08F1010001
:1022500000F0FF08B8F1080FE9DB681CC5B24D4576
:10226000D3DB80E00C2C45D12046E31704EB5373FD
:10227000DB1021464FEAE47C04EB5C7C4FEAEC0C7B
:10228000A4EBCC0CBCF1000F02D04FF0010C01E02C
:102290004FF0000C6344224604EBD27C4FEA6C0CF6
:1022A00003FB0CF303F0FF09002520E006EB4600DA
:1022B000324901EB8000475D4FF0000812E007F063
:1022C000800018B12B480088029002E02A4800885C
:1022D0000290029800F0A4F87806070E08F10100B9
:1022E00000F0FF08B8F1060FE9DB681CC5B24D45E8
:1022F000DCDB38E0182C36D12001C11700EB51711E
:10230000C1F3C70900252CE006EB46001C4901EB90
:102310000010475D284605EBD0714910A5EB41013F
:1023200011B90820019001E0042001904FF000084D
:1023300012E007F0800018B10E480088029002E019
:102340000D4800880290029800F06AF87806070E9F
:1023500008F1010000F0FF0801988045E9DB681CE6
:10236000C5B24D45D0DB00BF18E700000C6900087E
:10237000CC800008F0040020F204002098640008DB
:10238000FC6E00082DE9F04704460D46904699463C
:10239000DDE9086704F0FF0A08EB04001FFA80F883
:1023A00009EB05001FFA80F914E0444502DB5446AE
:1023B000A81985B24D4500DB12E03A78334629462C
:1023C0002046FFF7D7FE304606EBD07104EB6101E3
:1023D0008CB27F1C38787E2802DC38782028E4DA3A
:1023E00000BFBDE8F087000001B50022402104488D
:1023F000FEF7BAFA01216846FFF7B4FE08BD0000F7
:102400000008004801B5012240210448FEF7ACFA5B
:1024100001216846FFF7A6FE08BD0000000800483D
:1024200038B504460020009020128DF80000E0B27C
:102430008DF80100012240210348FEF795FA0221A0
:102440006846FFF78FFE38BD000800480246501866
:10245000401E904204D95018401E4B1E98437047AE
:10246000481E22EA0000FAE72DE9F84305460C462B
:1024700016461F46DDF820800A48006848B1094822
:10248000CDF800803B4632462146D0F800C02846B1
:10249000E0470548844202D00020BDE8F8830020D0
:1024A000FBE70000E4040020F8C3B2A110B503F07C
:1024B00045F82B482B49086002F0A6FD044654B1AC
:1024C00000BF29A001F032FD214629A001F02EFD18
:1024D00000BF204610BD02F01DFD03F073FC044652
:1024E0004CB100BF20A001F021FD28A001F01EFD8D
:1024F00000BF2046EEE703F0F9FC03F087F804463E
:102500000CB12046E6E702F08FFD04460CB12046F0
:10251000E0E702F0D7FE04464CB100BF12A001F084
:1025200005FD1FA001F002FD00BF2046D2E703F029
:10253000CBF904464CB100BF0BA001F0F7FC1DA085
:1025400001F0F4FC00BF2046C4E703F027FF02F0CF
:1025500009FD04460CB12046BCE70020BAE70000A4
:1025600058110020E80400205B4552525D20000015
:102570006F734D656D53797374656D496E69742021
:102580006572726F722025640A0000006F735461D7
:10259000736B496E6974206572726F720A00000075
:1025A0006F735175657565496E6974206572726FD8
:1025B000720A00006F735377546D72496E6974200C
:1025C0006572726F720A000042684A600860426871
:1025D00011604160704742684A600860426811605B
:1025E0004160704742684A6008604268116041601B
:1025F000704742684A6008604268116041607047F5
:10260000D0E900121160D0E9002151600021416041
:102610000160704701464868884201D10120704737
:102620000020FCE701464868884201D1012070473C
:102630000020FCE701464868884201D1012070472C
:102640000020FCE701464868884201D1012070471C
:102650000020FCE740600060704740600060704709
:1026600040600060704740600060704770B504468D
:102670000D4629462068FFF7A7FF70BD70B50446D8
:102680000D46002604B10DB9304670BD29462046DE
:1026900003F05AF8064626B92946204602F038FAD1
:1026A00006463046F1E770B504460D4616463246FA
:1026B0002946204602F0E0FA70BD70B504460D468A
:1026C000002604B10DB9012070BD2946204603F053
:1026D0008BF80646012E04D02946204602F0FAFA6D
:1026E0000646012E01D00120EEE70020ECE70000B5
:1026F0002DE9F84F04460E464FF0010830480568B2
:10270000D0F800900CB1502E02D80120BDE8F88F0F
:1027100004F0030008B10120F8E7FDF7B7FC82469A
:1027200020E0A8684719AC4202D8A019A84204D8F2
:10273000BC4215D2A019B84212D300BF21A001F0AB
:10274000F5FBA8682844A2192B46214600901FA03B
:1027500001F0ECFB00BF5046FDF7A0FC0120D5E7DF
:10276000A946ED68002DDCD13146204602F052FB2F
:102770008046B8F1000F04D15046FDF78FFC0120D0
:10278000C4E7B6F5805F0BD3204603F067F88046B8
:10279000B8F1000F04D15046FDF780FC0120B5E7E9
:1027A0000748006810B90648046001E0C9F80C4009
:1027B0000020E0605046FDF771FC0020A6E7000015
:1027C000E00400205B4552525D200000706F6F6C8A
:1027D000205B25702C20307825782920636F6E6669
:1027E0006C696374207769746820706F6F6C205B0C
:1027F00025702C2030782578290A00002DE9F05F1B
:102800000E469046DDF8289009F104001FFA80FA80
:10281000B8F1000F02D12E48BDE8F09F4FF6FB70D3
:10282000814502DD2A480938F6E716B1B9F1000FF3
:1028300002D12748401CEFE706FB0AF12548006853
:10284000FFF71CFF074617B921480A38E4E7FDF7F0
:102850001DFC83462048FFF7EDFE50B15846FDF7BA
:102860001DFC39461B480068FFF727FF1848083849
:10287000D2E71948456800BFD5E900010860D5E9ED
:102880000010486000206860286000BFA5F11C04AB
:10289000E680A4F808A027600120A0800020208204
:1028A0006682A081E08104F11400FFF7D9FE04F1F3
:1028B0001C00FFF7D5FE04F12400FFF7D1FE5846B7
:1028C000FDF7ECFB6089C8F800000020A4E70000D9
:1028D0000C060002E8040020BC0400202DE9F843A7
:1028E00081460C4615461E4633462A462146484632
:1028F00002F0E4FD074617B13846BDE8F8834FF013
:1029000000082B46224641464846009602F012FD3A
:10291000F3E72DE9FF4182B080460C461D462B4669
:1029200004AA2146404602F0E9FD06461EB13046A3
:1029300006B0BDE8F081032704AB22463946404685
:10294000009502F0F7FCF3E710B5FDF79FFB044696
:1029500002F01EFC28380A494860084600684968A9
:10296000884208D00748008828B92046FDF796FB22
:10297000FDF797FB10BD2046FDF790FB00BFF9E780
:10298000440400204C04002070B505460C46224645
:102990004FF6FF71284602F0DBFD70BD2DE9F843CC
:1029A00007468846142F0BD300BF002003463C4A3D
:1029B0003C4900903CA0FFF757FD3948BDE8F8833B
:1029C0003E48006800EB0714FDF760FB8146208855
:1029D00068B94846FDF762FB00BF00200346304A55
:1029E0003049009030A0FFF73FFD2D48E6E76088B2
:1029F000002807DD6088401E60804846FDF74EFBDA
:102A00000020DBE7B8F1000F02D1254DED1C39E0C5
:102A100002F0CEFA50B1224D2D1D00BF28A001F0CA
:102A200085FA29A001F082FA00BF2BE02F48008828
:102A300050B11B4D6D1D00BF21A001F077FA2CA0F5
:102A400001F074FA00BF1DE032480668B4614246E6
:102A5000082104F1080003F091FB4846FDF71EFB36
:102A6000FFF772FF307900F0400048B1FDF70EFB30
:102A70008146B08820F04000B080094DAD1D01E0D6
:102A800000209BE74846FDF709FB00BF00200346F6
:102A90002A460449009004A0FFF7E6FC28468DE78B
:102AA00001070002F8C3B2A16F735F756E737065A2
:102AB00063696669635F66696C650000CC04002029
:102AC0005B4552525D2000002121214C4F535F4550
:102AD00052524E4F5F53454D5F50454E445F494EF5
:102AE000544552522121210A000000004C040020CC
:102AF0002121214C4F535F4552524E4F5F53454D5C
:102B00005F50454E445F494E5F4C4F434B2121215E
:102B10000A00000044040020F8B505462548006876
:102B200000EB0514142D01D32348F8BDFDF7AEFAD0
:102B30000746208868B93846FDF7B0FA00BF002084
:102B400003461D4A1D4900901DA0FFF78DFC1A4841
:102B5000EBE7A088618888420FD13846FDF79EFADE
:102B600000BF00200346144AD21D1449009014A04F
:102B7000FFF77AFC1048C01DD7E704F10800FFF703
:102B800061FD70B9E068A0F128060020B06108215D
:102B9000304603F019FB3846FDF780FAFFF7D4FE04
:102BA00005E06088401C60803846FDF777FA002019
:102BB000BBE70000CC04002001070002F8C3B2A16B
:102BC0006F735F756E73706563696669635F66696D
:102BD0006C65000010B503F02FFB04464CB100BF3C
:102BE00006A001F0A3F907A001F0A0F900BF20465C
:102BF00010BDFDF725FA2046FAE700005B4552526A
:102C00005D2000006F735469636B537461727420AC
:102C10006572726F720A00002DE9F04105460F4699
:102C200000263946284600F045F8064616B13046DB
:102C3000BDE8F0812868C0EBC00000EB40001949F6
:102C4000096801EB8004FDF721FA8046A08820F096
:102C50000200A080A08840F00400A080E18804F178
:102C6000280002F039FA02F093FA28380E49486039
:102C70000E48006888B10E48008870B908460068A0
:102C80004968884209D00A48008830B94046FDF7B3
:102C900005FA02F059FC0020CAE74046FDF7FEF9AC
:102CA0000020C5E740040020440400207C040020EC
:102CB0004C0400202DE9F05F07460C464FF0000859
:102CC0004FF0FF3A17B95448BDE8F09F14B9524885
:102CD000801FF9E7206910B94F48801EF4E720688B
:102CE00010B94D48C01EEFE7A0881F2802DD4A48F2
:102CF000001FE9E7A0881F2806D1484920688842BC
:102D000002D04548001FDFE74549464A891AE06876
:102D1000884202D940481930D6E7E06810B94FF42C
:102D20003470E0600821E068FFF790FBE060E06845
:102D3000B0F5987F02D23848401EC5E7FDF7A6F9E6
:102D4000834612E038484068A0F1280536494868B3
:102D5000FFF756FC05F128013448FFF735FC3148F0
:102D6000E968FFF7AAFC0020E8602F48FFF75AFC4B
:102D70000028E7D02D48FFF755FC28B1DFF898A0D0
:102D80000AF10A0A00BF41E028484068A0F128057E
:102D900026494868FFF734FC5846FDF77FF9D5F817
:102DA000108008221F48E168FFF77DFC06465EB9E7
:102DB000FDF76CF9834605F128011C48FFF704FC78
:102DC000DFF86CA000BF21E032464046E16803F026
:102DD000EDFA8146C5F80090A0682862EE60E068D0
:102DE000A8600020A861E8610220A880A088E8808F
:102DF000206868614FF0FF30E8630020A864206914
:102E0000686200202865C7F800805DE75846FDF736
:102E100045F9504658E7000007020002614F0008DC
:102E200000FC0020581100206C04002064040020E5
:102E30000002000370B5044602F0BAF808B1184861
:102E400070BD1848008808B11748F9E714B900F0B8
:102E5000EBF8F5E7FDF71AF905461449096801F1A1
:102E6000280002F013F911480068808820F004005F
:102E70000E49096888800D490868214602F026FF3E
:102E80000A480068808840F0200008490968888066
:102E90002846FDF703F9FFF757FD0020D0E70000B3
:102EA0000D0200034C0400200E0200024404002026
:102EB0002DE9F04106464FF0FF3751480068864241
:102EC00002D15048BDE8F0814F480068864202D1E7
:102ED0004C480D30F6E74D480068864202D3494819
:102EE0000D38EFE7FDF7D2F88046C6EBC60000EBE1
:102EF00040004749096801EB8004A58805F00100FE
:102F000018B1404F0A3F00BF74E005F0100028B12F
:102F10004048008810B100203E49088005F00400B8
:102F200040B104F1280002F0B1F8A08820F00400BC
:102F3000A08009E005F0080010B905F4005018B1B0
:102F400004F12800FFF75CFB05F0600010B120469B
:102F500003F0DAF9A08820F00200A080A08840F0F9
:102F60000100A0804FF0FF30E0630020A06402F079
:102F70000FF9283828494860207900F0100038B34C
:102F800004F128012548FFF771FB20480068C0EBD9
:102F9000C00000EB40001E49096801EB80001E499B
:102FA0000860084600680661A088096888801A4998
:102FB000E0680968C8601849606A096848620120C9
:102FC000A0804046FDF76AF802F0BEFA002079E7DB
:102FD0000120A08004F128011148FFF7F5FA1148FB
:102FE000E168FFF76AFB0020E0604046FDF756F815
:102FF000002067E74046FDF751F8384662E70000D9
:103000005404002014020002580400205004002040
:10301000400400204C040020440400206C040020E4
:10302000640400205811002070B500242048006876
:10303000006920490968884201D31F4870BD1C48B7
:103040000068007900F0040008B90020F6E7FDF7F9
:103050001DF8054616490968C88802F085F8044637
:10306000012C17D91249096801F12800FFF7C8FAA5
:103070000F480068808840F004000D490968888086
:103080000B4A1268D1880A4A126802F1280002F03D
:1030900023F805E02846FDF701F807480930CDE799
:1030A0002846FCF7FBFFFFF74FFC0020C6E70000B7
:1030B000440400205004002007020002014903C913
:1030C000704700008804002000B587B000BF294881
:1030D000C06C40F004002749C8640846C06C00F08A
:1030E0000400019000BF00BF00BF0846C06C40F064
:1030F0008000C8640846C06C00F08000019000BFEA
:1031000000BF00BF0846C06C40F00100C86408461C
:10311000C06C00F00100019000BF00BF00BF084676
:10312000C06C40F00200C8640846C06C00F00200A9
:10313000019000BF00BF00224FF400510E48FDF780
:1031400013FC4FF4005002900120039000200490E3
:10315000059002A90848FDF719FB0C2002900748CA
:1031600003900120049002A90548FDF70FFB07B06A
:1031700000BD0000001002400008004800002110BF
:103180000004004810B51348134908604FF48270DA
:1031900048604FF40041104881604FF4E061C16025
:1031A0000221016101214161490281610021C16166
:1031B0000162416281620721C1620021016308212D
:1031C0004163FEF727FB18B1472104A000F0ACFED5
:1031D00010BD000000380040D80600202E2E5C53A1
:1031E00072635C7370692E630000000010B50E48B6
:1031F0000E4908604FF4E130486000210B488160BF
:10320000C16001610C21416100218161C1610162E4
:103210000020064948620846FEF78EFC18B15B2183
:1032200003A000F081FE10BD0038014070050020B1
:103230002E2E2F5372632F75736172742E630000EC
:103240001CB5002434E01BA018210B46F022CDE968
:1032500000101E210A20FFF795F81AA010210B4636
:10326000F022CDE900103C210A20FFF78BF8042161
:103270001A48FEF7D7FD012817D100211848006829
:10328000FFF78CFB04466CB916A000F04FFE1EA0A1
:1032900018210B46F022CDE9001050210A20FFF73B
:1032A00071F802E01CA000F041FE1420FFF7C2FDFF
:1032B000C9E700004F70656E2074686520706F72FA
:1032C00074000000506C65617365207072657373E3
:1032D00020746865204B65790000000000040048F8
:1032E000140400200D0A4B455931B1BBB0B4CFC214
:1032F000A3ACB3C9B9A6C9EAC7EBB5BDCDA3B3B5F5
:10330000CEBBA1A30D0A00004B6579312069732063
:1033100070726573736564000D0A4B455931B1BB1A
:10332000B0B4CFC2A3ACB2BBBAC3D2E2CBBCA3ACE5
:10333000CFD6D4DACDA3B3B5B3A1D2D1C2FAA3A16B
:103340000D0A00001CB500241FE008210F48FEF7FD
:1033500069FD012816D10E480068FFF7DDFB044621
:103360006CB90CA000F0E2FD12A018210B46F0226F
:10337000CDE9001050210A20FFF704F802E011A067
:1033800000F0D4FD1420FFF755FDDEE700040048EF
:10339000140400200D0A4B455932B1BBB0B4CFC262
:1033A000A3ACCACDB7C531B8F6CDA3B3B5CEBBA1DA
:1033B000A30D0A004B657932206973207072657322
:1033C000736564000D0A4B455932B1BBB0B4CFC22E
:1033D000A3ACB5ABD2D1CEDEB3B5CEBBBFC9D2D4D0
:1033E000CACDB7C5A3A10D0A000000002DE9F04128
:1033F00004460E46002700255B48C06800F0030025
:1034000090B15948C06800F003002168884209D192
:10341000206838B15448C068C0F30210401C61688D
:10342000884233D0012531E02068012804D00228E9
:1034300009D003281AD10DE04B48006800F00200C3
:1034400000B9012514E04848006800F4806000B924
:1034500001250DE04448006800F4003028B94248D6
:10346000006800F4802000B9012501E0012500BFBB
:1034700000BF5DB9D4E90010401E41EA00103A498E
:10348000C96821F0730108433749C860002D67D12E
:103490003548006820F0806033490860FDF769FA1C
:1034A000074606E0FDF765FAC01B022801D903258F
:1034B00005E02D48006800F000600028F2D100BF50
:1034C000C5BB66B9A0680002217B40EAC1602649FD
:1034D0000969264A114008432349086120E0012E6A
:1034E0000FD1A0680002218A0122C2EB510140EAFB
:1034F00041501D4909691E4A114008431A49086193
:103500000EE0A0680002217D0122C2EB510140EAD9
:10351000416015490969174A114008431249086179
:103520001148006840F080600F490860FDF721FAFB
:10353000074607E014E0FDF71CFAC01B022801D97A
:10354000032505E00848006800F000600028F2D07C
:1035500000BF2DB904480069A16908430249086108
:103560002846BDE8F081000000100240FF80FF0700
:10357000FF809FFFFF80FFF9F8B504460026002575
:103580002348806D00F0805018B1FDF7BFFA064661
:1035900016E000BF1E48806D40F080501C498865D1
:1035A0000846806D00F08050009000BF00BFFDF71E
:1035B000ADFA06461648806D20F0805014498865A3
:1035C000B6F5007F07D1802C10D9A02C01D9022597
:1035D0000CE001250AE0802C01D9032506E0802CAF
:1035E00001D1022502E0702C00D1012509480068B4
:1035F00020F007002843074908600846006800F0EB
:103600000700A84201D00120F8BD0020FCE700001F
:10361000001002400020024070B504460D464FF4F1
:103620007A732A4621460248FEF790F970BD0000E1
:10363000D8060020F8B504460E461546334600224B
:103640004FF4C0512046009500F026F828B1206EB6
:1036500040F0200020660320F8BD33460022802180
:103660002046009500F070F828B1206E40F0200050
:1036700020660320F0E7334600224FF4C061204665
:10368000009500F009F828B1206E40F02000206677
:103690000320E1E70020DFE72DE9F84304460E466A
:1036A00017461D46DDF8208047E0B6F5C06F05D10E
:1036B00027B92068007B00909DF80000681CD8B3F3
:1036C0002DB1FDF756F9A0EB0800A84235D32068CC
:1036D000406820F0E000216848606068B0F5827FB3
:1036E0000DD1A068B0F5004F03D0A068B0F5806F91
:1036F00005D12068006820F0400021680860A06AB9
:10370000B0F5005F0DD100BF2068006820F40050C4
:10371000216808602068006840F400502168086053
:1037200000BF012084F85D0000BF002084F85C0029
:1037300000BF0320BDE8F883FFE7206880683040C1
:10374000B842B2D10020F5E72DE9F04104460E461B
:1037500017461D46DDF818803EE0681CD8B32DB131
:10376000FDF707F9A0EB0800A84235D320684068B0
:1037700020F0E000216848606068B0F5827F0DD1DC
:10378000A068B0F5004F03D0A068B0F5806F05D1F8
:103790002068006820F0400021680860A06AB0F549
:1037A000005F0DD100BF2068006820F40050216840
:1037B00008602068006840F400502168086000BF7D
:1037C000012084F85D0000BF002084F85C0000BF89
:1037D0000320BDE8F081FFE7206880683040B042F8
:1037E00001D1012000E00020B842B6D10020F0E76E
:1037F00000B5ADB0FDF792F93648006820F018002A
:1038000034499039C1F8900016201C9001201E9078
:1038100000021F9010202090012022900020239071
:10382000602024900220269001211CA8C16201631F
:1038300028214163072181630221C1630164FDF7EF
:103840009DFC18B15F2124A000F06EFB0F201790A3
:1038500003201890002019901A901B90042117A89B
:10386000FDF72AFB18B16D211BA000F05DFB1F487E
:1038700000900020089009900A904FF400600B908F
:1038800000200C900D900E904FF0805014908010FE
:103890001290012001900121029110210391072132
:1038A00004910221059106914FF0887107916846B5
:1038B000FDF73EF918B1872107A000F035FB4FF462
:1038C0000070FDF7DDF818B18E2103A000F02CFB8D
:1038D0002DB000BD901002402E2E5C5372635C73BD
:1038E00079735F696E69742E63000000E741080018
:1038F0001048006840F470000E4908600E480068E7
:1039000040F001000C49086000208860084600680B
:103910000A490840084908608814C86008460068D9
:1039200020F4802008600020886105480149803922
:103930000860704788ED00E000100240FFFFF6EAE3
:103940000000010890F8241001F0010139B101686C
:10395000496821F40031826A11430268516090F88D
:10396000241001F00201022907D10168496821F4FD
:103970008031C26A11430268516090F8241001F04E
:103980000401042907D10168496821F48021026BF0
:1039900011430268516090F8241001F008010829D1
:1039A00007D10168496821F40041426B1143026864
:1039B000516090F8241001F01001102907D101681E
:1039C000896821F48051826B11430268916090F8FC
:1039D000241001F02001202907D10168896821F411
:1039E0000051C26B11430268916090F8241001F0FD
:1039F0004001402913D10168496821F48011026C0B
:103A0000114302685160016CB1F5801F07D1016854
:103A1000496821F4C001426C11430268516090F87A
:103A2000241001F08001802907D10168496821F440
:103A30000021826C114302685160704738B504461A
:103A4000002500206067FCF794FF054620680068A9
:103A500000F0080008280CD16FF07E402B460022B1
:103A60004FF400110090204600F028FA08B103201E
:103A700038BD2068006800F0040004280CD16FF005
:103A80007E402B4600224FF480010090204600F03B
:103A900015FA08B10320EBE7202084F8710084F8C0
:103AA000720000BF002084F8700000BF00BFDFE795
:103AB0002DE9F84F04464FF0000910264FF0000B97
:103AC0000025002000908246F3492068884200D1FA
:103AD00000E000BF2169A068084361690843E1690B
:103AE00040EA010920680068EC49084040EA090002
:103AF000216808602068406820F44050E16808436D
:103B000021684860D4F81890E3492068884202D0C0
:103B1000206A40EA09092068806820F4306040EAA1
:103B200009002168886000BFDD492068884216D1FD
:103B3000DC48006800F0030030B1012808D00228FA
:103B400004D0032808D105E0012607E0022605E09D
:103B5000042603E0082601E0102600BF53E0D24906
:103B60002068884216D1CF48006800F00C0030B1C0
:103B7000042808D0082804D00C2808D105E0002625
:103B800007E0022605E0042603E0082601E01026EF
:103B900000BF38E0C5492068884216D1C148006896
:103BA00000F0300030B1102808D0202804D0302890
:103BB00008D105E0002607E0022605E0042603E020
:103BC000082601E0102600BF1DE0B34920688842A6
:103BD00019D1B448006800F4406048B1B0F5806F76
:103BE0000AD0B0F5006F05D0B0F5406F08D105E000
:103BF000002607E0022605E0042603E0082601E08F
:103C0000102600BF00BF00BFA3492068884272D1C0
:103C1000042E10D003DC3EB1022E13D108E0082E92
:103C20000DD0102E0ED10EE0FDF702FA82460DE007
:103C3000DFF87CA20AE0FDF71BFA824606E04FF4AB
:103C4000004A03E000BF0120009000BF00BFBAF1AE
:103C5000000F0AD0606800EB4000504503D8606850
:103C60000003504502D2012000900FE1042E2ED017
:103C700003DC3EB1022E51D118E0082E3CD0102EAC
:103C80004CD14CE0FDF7D4F94FF48071A0FB01302A
:103C9000616849085F1840F10001D4F804C0624629
:103CA00000233846FCF742FA05463BE0D4F804C04E
:103CB0004FEA5C0000217F4BC71841EB01086246C8
:103CC0000B4638464146FCF731FA05462AE0FDF737
:103CD000CFF94FF48071A0FB0130616849085F188B
:103CE00040F10001D4F804C0624600233846FCF7D6
:103CF0001DFA054616E022E0D4F804C04FEA5C0045
:103D000000214FF40003C71841EB010862460B463F
:103D100038464146FCF70AFA054603E000BF012099
:103D2000009000BF00BFB5F5407F05D3B5F5801FFB
:103D300002D22068C560A9E001200090A6E0E069F9
:103D4000B0F5004F57D1042E28D005DC4EB1012E1E
:103D500011D0022E36D118E0082E29D0102E31D1E4
:103D600031E0FDF765F94000616800EB5100B0FB00
:103D7000F1F085B22AE0FDF76BF94000616800EBD5
:103D80005100B0FBF1F085B220E04B49606801EBD7
:103D900050006168B0FBF1F085B217E0FDF768F9FB
:103DA0004000616800EB5100B0FBF1F085B20DE01E
:103DB0004FF48031606801EB50006168B0FBF1F0B6
:103DC00085B203E000BF0120009000BF00BF102DAE
:103DD0000ED3B5F5803F0BD24FF6F07005EA000B1D
:103DE000C5F342004BEA000B2068C0F80CB04DE070
:103DF000012000904AE0042E26D005DC4EB1012EB1
:103E000010D0022E33D116E0082E26D0102E2ED13F
:103E10002EE0FDF70DF9616800EB5100B0FBF1F009
:103E200085B228E0FDF714F9616800EB5100B0FBA2
:103E3000F1F085B21FE01E49606801EB5000616837
:103E4000B0FBF1F085B216E0FDF712F9616800EB06
:103E50005100B0FBF1F085B20DE04FF40041606815
:103E600001EB50006168B0FBF1F085B203E000BFE8
:103E70000120009000BF00BF102D05D3B5F5803F95
:103E800002D22068C56001E0012000900020206679
:103E900060660098BDE8F88F00800040F369FFEF8E
:103EA00000380140881002400044004000480040B3
:103EB0000024F400000024F40048E8012DE9F0415A
:103EC00004460D4617469846069E21E0701CF8B140
:103ED0002EB1FCF74EFDA0EB0800B04218D92068C7
:103EE000006820F4D070216808602068806820F0A5
:103EF000010021688860202084F8710084F8720035
:103F000000BF002084F8700000BF0320BDE8F081EE
:103F10002068C0692840A84201D1012000E00020AB
:103F2000B842D3D00020F1E700BFFEE70FB4054B45
:103F300010B503A9044A029800F0E6F810BC5DF839
:103F400014FB000031490008F40400200248006816
:103F5000C0F30220704700000CED00E010B500280F
:103F600004DB0A07130E054A135406E00A07140E71
:103F7000034A00F00F031B1FD45410BD00E400E0FF
:103F800018ED00E002E008C8121F08C1002AFAD1AB
:103F900070477047002001E001C1121F002AFBD1C9
:103FA000704700002DE9FF5FDDE90220010DDDF81B
:103FB00038B0024318D044F61050A1F2FF3141430B
:103FC0000D140F98012820D0A5EB0B00401C5FEAD0
:103FD000000A4FF00004474EDFF81C91A0465046FF
:103FE00016D5CAF1000728E00F98012443A2012842
:103FF00008D0002100980F9BC0E90021C0E90243CE
:10400000BDE8FF9F6FEA0B01F4E7CBF10000DEE7AC
:10401000074612E0F80707D0224633464046494695
:10402000FCF799FA804689462246334610461946DF
:10403000FCF791FA04460E467F10002FEAD1DDE925
:104040000201BAF1000F42464B4602DAFCF783FA4E
:1040500001E0FCF7C0F804460E460022284BFCF7AE
:10406000EDFA03D84FF0FF30014607E00022254B60
:1040700020463146FCF7C8F9FCF71CF9102409E08A
:10408000002C0ADB0A220023FCF750F8019B303297
:104090001A55641E50EA0102F2D1641C019AC4F15F
:1040A000110314440F9A012A03D0012208430DD1B1
:1040B0000AE0084304D000204FF0110B0F9080E776
:1040C000A3EB0B056D1E0DE05B4504DD4FF0000218
:1040D00005F1010504E003DA4FF00002A5F1010546
:1040E000002AECD000980F99C0E90231C0E90045E0
:1040F00086E70000000024400000F03F3000000090
:104100000000F0430000E03F2DE9FF4F95B09B46D3
:104110008946064600250FE2252877D10024274648
:10412000F84A0121059400E0044316F8013F203BC2
:1041300001FA03F01042F7D130782A2811D06FF03D
:104140002F033078A0F13002092A16D8059A44F0DE
:10415000020402EB820203EB42021044761C05903B
:10416000EFE759F8042B0592002A03DA504244F491
:104170000054059044F00204761C30782E2816D1A5
:1041800016F8010F44F004042A280DD06FF02F0216
:104190003078A0F13003092B09D807EB870302EB35
:1041A0004303C718761CF3E759F8047B761C307874
:1041B0006C280FD006DC4C2817D068280DD06A2850
:1041C00014D104E0742810D07A280FD10DE044F403
:1041D00000140AE044F4801401E044F440147278BE
:1041E000824202D104F58014761C761C3078662851
:1041F0000BD013DC582877D009DC002875D045286F
:10420000F6D04628F4D047281AD19DE118E063285B
:1042100035D0642879D0652812D195E1702873D003
:1042200008DC6728F1D069286FD06E280DD06F2880
:1042300006D1B5E073282CD0752875D0782874D0B5
:104240005A46179990476D1C75E1C4F30250022835
:1042500009D003280DD0D9F8001004280DD00D6026
:1042600009F1040967E1D9F80010EA17C1E9005221
:10427000F6E7D9F800100D80F2E70D70F0E719F8B5
:10428000041B8DF8001000208DF80100EA46012083
:1042900003E059F804AB4FF0FF3061074FF0000125
:1042A00002D40DE008F101018846B9420FDA8045D9
:1042B000F8DB1AF808100029F4D108E008F1010130
:1042C00088468142FADB1AF808100029F6D10598D1
:1042D0005B46A0EB080721463846179A00F094FA8F
:1042E000284400EB080507E04DE029E10DE01AF84D
:1042F000010B5A4617999047B8F10108F7D25B466F
:1043000021463846179A13E142E00A220092C4F38C
:1043100002524FF0000A022A08D059F804CB032AAF
:104320004FEAEC710AD00DE029E02AE009F107011B
:1043300021F00702F2E802C1914609E00FFA8CFC75
:104340004FEAEC71042A03D14FFA8CFC4FEAEC716E
:10435000002907DA0A460021DCF1000C61EB0201BA
:104360002D2202E0220504D52B228DF80420012203
:1043700003E0E20701D02022F7E7904659E00A2146
:1043800002E010220DE010214FF0000A00910BE036
:1043900010224FF0000A44F004040827009203E0C2
:1043A00008224FF0000A0092C4F30252022A05D0FC
:1043B00059F804CB0021032A08D009E009F10701CC
:1043C00021F00702F2E802C1914605E01FFA8CFCD9
:1043D000042A01D10CF0FF0C4FF00008220728D569
:1043E000702806D0009B83F0100353EA0A0305D01F
:1043F0000EE040228DF80420012208E05CEA010270
:1044000006D030228DF804208DF805000222904657
:10441000009B83F0080353EA0A030AD15CEA010215
:1044200001D1620705D530228DF804204FF0010834
:104430007F1E582804D034A003900EA802900DE0EF
:1044400036A0F9E753466046009AFBF76FFE8446B4
:104450000398825C0298401E029002705CEA0100A0
:10446000F0D1029806A9081A00F1200A600702D5C7
:1044700024F4803400E00127574502DDA7EB0A0051
:1044800000E0002000EB0A01009005984144401A2A
:104490000590E00306D45B462146179A059800F084
:1044A000B3F90544002706E001A85A46C05D1799F4
:1044B00090476D1C7F1C4745F6DBE0030CD55B463F
:1044C0002146179A059800F09FF9054404E0302032
:1044D0005A46179990476D1C0099481E0090002974
:1044E000F5DC08E0029802995A460078491C0291CE
:1044F000179990476D1CBAF10001AAF1010AF1DC8D
:1045000065E1000009280100303132333435363797
:10451000383961626364656600000000303132330F
:1045200034353637383941424344454600000000AF
:1045300000F058F90544761C307800287FF4ECAD83
:1045400019B02846BDE8F08F620700D4062709F1AC
:10455000070222F0070CFCE80223E14603F00048C2
:104560005FEA080C02D00FF2702C0DE05FEA045CE9
:1045700002D50FF2682C07E05FEAC47C02D00FF28C
:10458000602C01E0AFF2700C4FF0FF3823F00043D5
:10459000CDF850C065280CD006DC452809D0462847
:1045A0001DD047283DD13DE0662818D067287ED130
:1045B00038E00021112F01DB112000E0781CCDE94B
:1045C000000106A90EA8FFF7EDFCDDE90F010E9A28
:1045D00003910021009207F1010A04914DE04FF090
:1045E00000400097CDE9011006A90EA8FFF7DAFCFC
:1045F000DDE90F0203920E9B11990022DDF80CA059
:104600000093049211B9791C00EB010AB7EB0A0080
:1046100004D4C0F1FF3007F1010A0490AAEB0700AF
:10462000019044E0012F00DA01270021112F01DD64
:10463000112000E03846CDE9000106A90EA8FFF7D9
:10464000B1FCDDE90F010E9A039100210491009263
:10465000BA4621070CD40399514500DA8A46BAF1CB
:10466000010F05DD009AAAF10101515C302908D043
:10467000B84202DA10F1040F06DA0121CDE9011087
:1046800015E0AAF10101E9E7002805DC04990144DD
:104690000491AAEB000102E0411C514500DD8A466D
:1046A0000499401A401C01904FF0004002902007EE
:1046B00004D40198504501DBCDF8048000208DF82A
:1046C0004F0002980DF14F07B0F1004F25D02B207D
:1046D0000E9002984FF0020800280CDA4042029037
:1046E0002D200E9007E00A210298FBF7FBFD3031E8
:1046F000029007F8011DB8F10001A8F10108F2DCF1
:1047000002980028EFD1791E0E980870307800F0DA
:10471000200040F0450007F8020D12A8C01B00F170
:1047200007081498007800B1012000EB0A010198F5
:1047300001EBE07105984144401A401E0590E003EA
:1047400006D45B462146179A059800F05DF80544AB
:104750001498007818B15A46179990476D1CE003D9
:1047600024D55B462146179A059800F04DF805447C
:104770001CE00498002807DBDDE90301884203DD23
:104780000098405C179901E0179930205A469047ED
:10479000049805F10105401C04900198401E019009
:1047A00004D12E205A46179990476D1CBAF100018A
:1047B000AAF1010ADDDC05E017F8010B5A4617994A
:1047C00090476D1CB8F10001A8F10108F4DC5B46CC
:1047D0002146179A0598ABE62D0000002B0000003B
:1047E000200000002DE9F041044600251E46174632
:1047F000880404D405E039462020B0476D1C641EAF
:10480000F9D52846BDE8F0812DE9F04104460025A0
:104810001E469046C80301D5302700E020278804B3
:1048200004D505E041463846B0476D1C641EF9D5F5
:104830002846BDE8F081704710B586B000240220FC
:10484000ADF8040008A004900B4800904FF4C0504D
:10485000039069460948FEF7DFF9044614B1204683
:1048600006B010BD2046FBE76167656E7474696E23
:10487000795F7461736B00003748000818040020EA
:1048800010B50024FFF7D8FF04460CB1012010BD7D
:104890002046FCE701B54FF47A72009901FB02F063
:1048A00000F002F808BD00002DE9F041054612486D
:1048B0004668124800681249B0FBF1F000FB05F7AA
:1048C000F419FBF7E3FB8046B44205D900BF0A4860
:1048D0004068A042FBD309E000BF07484068A042FF
:1048E000FBD800BF04484068A042FBD34046FBF71A
:1048F000D5FBBDE8F0810000001000E004040020BA
:1049000040420F00074908600749096841F080717B
:10491000054A11600549096841F00101034A116027
:104920007047000004040020FCED00E0001000E0EF
:1049300013B50C464FF6FF73012269460248FDF796
:10494000EFF900981CBD00007005002010B5002490
:10495000FDF74AFAFDF7AAFD0446FFF791FF04466A
:1049600010490520FEF710F804461CB121460EA0A0
:10497000FFF7DCFAFBF7CAFE04462CB1214612A071
:10498000FFF7D4FA204610BDFBF7E0FE04462CB139
:10499000214617A0FFF7CAFA2046F4E7FEF71AF9F6
:1049A0000020F0E714040020436F756E7453656DAA
:1049B000B4B4BDA8CAA7B0DCA3A1CAA7B0DCB4FA3E
:1049C000C2EB307825580A0050656E645F546173FD
:1049D0006BC8CECEF1B4B4BDA8CAA7B0DCA3A1CA3F
:1049E000A7B0DCB4FAC2EB307825580A000000000A
:1049F000506F73745F5461736BC8CECEF1B4B4BDA5
:104A0000A8CAA7B0DCA3A1CAA7B0DCB4FAC2EB3035
:104A10007825580A0000000030B585B004462546C8
:104A200014216846FBF7CCFB6946204600F022FAC9
:104A3000012801D105B030BD00BFFBE730B54C09FE
:104A4000031D03EB840203688B4200D830BD01F0E4
:104A50001F050124AC401368A343136000BFF5E7B2
:104A6000F0B5034618681F304609191D00250022BD
:104A700019E00868401C00B913E00868C44301E06D
:104A800064086D1C002CFBD16F1E4FF0010C0CFA5A
:104A900007FC086840EA0C00086005EB4210401E65
:104AA000F0BD521C091DB242E3D34FF0FF30F7E7CF
:104AB00010B502461068884201D8002010BD4B098D
:104AC000101D50F8230001F01F040123A3401840DB
:104AD00008B10120F2E70020F0E7014608687047BE
:104AE00070B505460C462C6004F11F00C108281D56
:104AF000FBF766FB04F01F0040B104F01F014FF00C
:104B0000FF3088406209291D41F8220070BD000075
:104B10002DE9F05F81460E460024A2464F4617B9A4
:104B20000020BDE8F09FFBF7B1FA8346F01C20F0AF
:104B300003067D6819E06868C0F38070A0B96868F2
:104B400020F04040B0420FD33CB1606820F04040BC
:104B5000696821F04041884206DD2C46606820F0FB
:104B60004040B04200D133E02D68002DE3D14CB974
:104B700000BF30A0FFF7DAF9314630A0FFF7D6F9D1
:104B800000BF48E0606820F04040801B08281ED924
:104B900004F108008519686820F08040686060684A
:104BA000801B0838696860F31D0169602C6021462C
:104BB000384600F051F98046B8F1000F01D17D6010
:104BC00001E0C8F80050606866F31D00606000BF37
:104BD000606820F000406060606820F0804000F174
:104BE0008040606004F1080A2048016806F108006E
:104BF00008441E490860084600681D490968884243
:104C000003D91A4800681A4908601A480068401C0D
:104C10001849086000BF7868406820F04040B0F54F
:104C2000806F02DA3846FFF7F7FE5846FBF736FA90
:104C3000504676E75B4552525D200000746865720D
:104C4000652773206E6F7420656E6F7567682077B7
:104C5000686F6C6520746F20616C6C6F63202578C1
:104C6000204279746573210A00000000D8040020F6
:104C7000DC040020D00400202DE9F04780460F46D8
:104C800014460025B8F1000F05D027B1042C02D33B
:104C9000601E204010B10020BDE8F0873819A0F157
:104CA000040949464046FFF733FF054675B1601ECB
:104CB0002844611E20EA0106B54200D107E0A6EBB8
:104CC000050A4AF0004A46F804AC354600BF2846BB
:104CD000E2E700002DE9F05F81460E464FF0010A41
:104CE0004D4605B116B90120BDE8F09F56F8048C79
:104CF00008F0004018B128F00048A6EB0806286824
:104D0000B04203D868680830B0420AD200BF38A069
:104D1000FFF70CF9314638A0FFF708F900BF002073
:104D2000E2E7FBF7B3F98346A6F108046068C0F335
:104D3000807088B12868A04211D020682968884214
:104D40000AD3216868680830814205D8284621685E
:104D500000F082F8A04202D04FF0000A43E0606801
:104D600020F080406060606820F0404008302749B3
:104D70000968884208D8606820F04040083023491C
:104D80000968081A2149086000E02468206828B1F1
:104D900020684068C0F380700028F6D00BE061689E
:104DA000786808300144606861F31D0060606868DD
:104DB000B84200D16C602146284600F04DF807004B
:104DC00004D07868C0F380700028E8D021462846D7
:104DD00000F042F8070000D03C600D480068401C1D
:104DE0000B49086000BF5846FBF758F950467BE76F
:104DF0005B4552525D20000030782578206F757435
:104E0000206F662072616E6765210A00D804002059
:104E1000D40400202DE9F04105460E462F460FB17F
:104E2000582E02D80020BDE8F08131462846FBF715
:104E3000C7F9BE6005F150043C607C60606820F0FA
:104E40008040606000202060A6F15800616860F337
:104E50001D0161600120E6E702465068884201D1E9
:104E600000207047486820F0404301F108001844D2
:104E7000F7E7000070B504460025002223460BB971
:104E8000012070BD09B90120FBE75A6809E05068AC
:104E9000C0F3807020B1506820F0404008300544D5
:104EA0001268002AF3D19868A84201D20120E8E7ED
:104EB0004D6098680860D1E90006801B886004484E
:104EC0000068C8600348006808610020D9E7000056
:104ED000D0040020D404002000F06AF8044600BF8B
:104EE00005A0FFF723F82246054906A0FFF71EF8A4
:104EF00000BF00BFFEE700005B4552525D2000008E
:104F0000846400082573206972716E756D3A25649A
:104F10000A00000010B5102104E00D480D4A42F8C7
:104F20002100491CFF29F8D90A480B4A10600720C4
:104F30000346141D22684FF6FF042240074C144319
:104F400044EA0322044C241D226000BF10BD00006F
:104F5000D94E00080000002008ED00E00000FA052E
:104F600000BFFEE710B586B018216846FBF728F9A8
:104F70000A4800904FF4A060039009A004901F20FD
:104F8000ADF8040069460948FDF746FE044614B131
:104F9000204606B010BD0020FBE70000614F00086E
:104FA00049646C65436F72653030300054040020F2
:104FB00000BFEFF30580704770B5FBF767F8054653
:104FC0000F480068401C0E4908602846FBF766F849
:104FD000FFF7EEFF04460B4850F8240018B10949CA
:104FE00051F824008047FBF751F805460448006853
:104FF000401E034908602846FBF750F870BD0000CA
:10500000EC040020D408002010B500240448054A10
:10501000811A1046FDF76CFB0446204610BD0000C7
:1050200000FC00205811002070B51448FDF715FB56
:105030004FF4F07112480068FDF720FB1149086039
:105040000846006808B9104870BD002411E004EB60
:1050500044000C49096801EBC0056C600020287011
:1050600005F10806054908683146FDF7B4FA00BFA6
:10507000641C142CEBD30020E6E70000B0040020F1
:10508000E8040020AC040020001D000270B50446B6
:1050900000BFD4E900010860D4E900104860002096
:1050A0006060206000BFA4F12805E988084A126802
:1050B00002EBC100FDF7AEFA40B1A9794FF0004014
:1050C000C8400449096881430248016070BD00007E
:1050D0001C0400202004002070B504460D460E4933
:1050E000096801EBC500FDF795FA38B14FF00040B3
:1050F000E8400A490968084308490860064800680A
:1051000000EBC50108684268626020604268146074
:10511000446000BF00BF70BD1C04002020040020BC
:1051200070B5002400254FF4807529460C480068AE
:10513000FDF7A4FA0B4908600846006800B970BD85
:105140000020044608E00749096801EBC4004060FC
:10515000006000BF601C0446202CF4D300BFEEE7C3
:10516000E80400201C040020014600200022074B18
:105170001B6803EBC1035A6801E0401C5268034BF3
:105180001B6803EBC1039342F7D170471C04002056
:1051900000210748006848B105480068B0FA80F16E
:1051A0000448006800EBC100406870470020FCE73D
:1051B000200400201C0400202DE9F04704460E4680
:1051C000174698464FF00009CA4606F0030020B182
:1051D000012810D0032828D119E0B4F80CA0A08928
:1051E000401CE188884202D10020A08102E0A08911
:1051F000401CA08123E0A08918B9E088401EA0814E
:1052000002E0A089401EA081B4F80CA017E0B4F819
:105210000EA0E089401CE188884202D10020E08194
:1052200002E0E089401CE08109E000BF1BA0FEF71E
:105230007DFE1CA0FEF77AFE00BFBDE8F08700BF30
:10524000218920680AFB010506F0040040B106F040
:10525000010010B9286838601DE0386828601AE03D
:1052600006F0010058B92089284450F8049C4A46A9
:1052700029463846FAF78BFFC8F800900BE039460C
:105280002846D8F80020FAF782FF20892844D8F869
:10529000001040F8041C00BFCFE700005B455252ED
:1052A0005D200000696E76616C69642071756575BA
:1052B00065206F7065726174652074797065210A6C
:1052C0000000000070B54FF4DC7116480068FDF76F
:1052D000D5F9154908600846006808B9134870BD3B
:1052E0004FF4DC7110480068FAF76AFF1048FDF7C8
:1052F000B7F9002412E004EB440000EBC4000A49B3
:10530000096801EB80056C8105F11C0608490868F5
:105310003146FDF767F900BF601C84B20A2CEADB56
:105320000020DCE7E8040020B804002001060002A9
:10533000BC0400202DE9FF4F83B081460E469846FD
:10534000DDF840A00020019006F00105FAF79EFE6E
:10535000029009EB490000EBC9005449096801EBD0
:105360008004A08810B95248019099E006F001002D
:1053700048B92089001FD8F80010814203D24C4858
:10538000153001908CE006F0010048B12089001F23
:10539000D8F80010814203D945480B3001907FE0D6
:1053A00004F1100030F8150090BBBAF1000F09D1DC
:1053B00006F0010010B93E48133001E03C480C30C3
:1053C00001906DE03B48008818B13948001F0190FA
:1053D00066E03948076804F1140101EBC500524644
:1053E0004FF4005100F0CAFE0298FAF757FEFDF79D
:1053F000ABFAFAF74BFE0290387900F0400090B11A
:10540000B88820F04000B8802948C01E019047E0CD
:10541000FFE704F1100030F81500401E81B204F1DE
:10542000100020F81510434631462046059AFFF734
:10543000C3FE0DB9012200E0002204F1140101EBCA
:10544000C200FDF7F7F8C0B90DB9012100E0002155
:1054500004F1140000EBC1004068A0F1280B4FF4E8
:105460000051584600F0B0FE0298FAF717FEFDF71B
:105470006BFA002007B0BDE8F08F0DB9012100E004
:10548000002104F1100030F81100401C81B20DB968
:10549000012200E0002204F1100020F8121000BFE9
:1054A0000298FAF7FBFD0198E4E70000B804002039
:1054B0000A0600024C040020440400202DE9F041BB
:1054C00005460E4614461F460A2D02D30A48BDE87B
:1054D000F08106B114B90848401CF8E7206810B9FB
:1054E0000548801CF3E72FB1FFF762FD10B10248B9
:1054F0000A30ECE70020EAE70E0600022DE9F04151
:1055000004460D4616461F460A2C02D30A48BDE83B
:10551000F08115B90848001DF9E7306810B9064850
:10552000401DF4E72FB1FFF743FD10B10248401FC3
:10553000EDE70020EBE700000E0600021020014915
:10554000086070475004002010B5FAF7AAFD10BD9E
:105550002DE9F84F074688469146B9F1000F02D170
:105560002248BDE8F88F474505DD00BF1F4EB61D38
:10557000DFF87CA02FE0FAF789FD83461D48FDF790
:1055800061F840B15846FAF789FD00BF174E761C06
:10559000DFF85CA01FE01748446800BFD4E90001B1
:1055A0000860D4E90010486000206060206000BFFF
:1055B000A4F108056F8001202880A5F8048005F17A
:1055C0000800FDF750F8E888C9F800005846FAF7D7
:1055D00065FD0020C5E700BF002003463246514666
:1055E000009005A0FCF740FF3046BAE70207000232
:1055F000F8C3B2A1C40400206F735F756E73706549
:1056000063696669635F66696C65000070B513481D
:10561000FDF729F84FF4A07111480068FDF72EF846
:10562000104908600846006808B90F4870BD00249A
:1056300010E00C48006800EB0415EC800020288086
:1056400005F10806054908683146FCF7D2FF00BF9E
:10565000601C84B2142CECDB0020E7E7C4040020BB
:10566000E8040020CC0400200007000230B5044606
:10567000A068FFF7F5F90546002D01DA002030BDDE
:10568000D4E9001001FB0500F9E72DE9F0410446DB
:105690000D46A8466068A8EB00062068B6FBF0F748
:1056A0002068B6FBF0F100FB116048B9A068FFF775
:1056B00014FAB84204D93946A068FFF7F9F910B9CD
:1056C0000020BDE8F0813946A068FFF7B7F9012056
:1056D000F7E72DE9F04781460E4615461F4607F1CC
:1056E0001F00042101EBD00808EB0500401E691ED5
:1056F00020EA01087019401E20EA010606FB07FA9D
:1057000008F10C0000EB0A014846FFF701FA0446D5
:1057100054B1266004F10C00A060A06840446060B1
:105720003946A068FFF7DCF92046BDE8F08702465D
:105730004DF6DE60108091700020D070101D704713
:10574000014601F1100070472DE9F04780460E46F2
:1057500000274046FFF7F4FF0546B9460024802E97
:1057600002D90020BDE8F087002439E005EB0410E1
:105770000068B04233D3FAF789FC824605EB041087
:10578000806805EB04114968884204D35046FAF753
:1057900085FC0020E6E705EB0410C06820B9504600
:1057A000FAF77CFC0020DDE705EB0419D9F80C00C2
:1057B000FFF75CFF07466FB105EB04100168384640
:1057C000FFF7B5FF074605EB04108068401C05EBAA
:1057D000041188605046FAF761FC3846C2E7641C41
:1057E000042CC3D30020BDE72DE9F05F81460F46AE
:1057F0004846FFF7A5FF05464FF0000A00243E1F6C
:1058000030884DF6DE61884202D00020BDE8F09F6E
:1058100000241FE0B07805EB04110968884218D80D
:10582000FAF734FC834605EB04183146D8F80C002F
:10583000FFF72BFF012807D1824605EB0410806893
:10584000401E05EB041188605846FAF727FC5046C5
:10585000DCE7641C042CDDD30020D7E72DE9F047FA
:1058600081464846FFF76CFF0546002400270026C6
:10587000A04600BF20E0102000FA04F64001B0FB73
:10588000F6F805EB0410066005EB0410C0F8048080
:10589000002005EB0411886005EB0410C06808B116
:1058A0007F1C08E043460422311D4846FFF711FFE4
:1058B00005EB0411C860641C042CDCD317B901206B
:1058C000BDE8F0870020FBE72DE9F84340211F48A1
:1058D000FAF776FC00201E4908604FF4E078414654
:1058E0001C480068FCF7CAFE044614B91A48BDE813
:1058F000F88341462046FAF763FC184804601848CC
:1059000004600020208125461C34012605E0268104
:105910002C602546701C86B21C34102EF7DB082044
:105920000023104A102100901846FCF767FF074635
:1059300017B10948001DDAE700F03CF9074617B136
:105940000548401DD3E70020D1E700003C070020B8
:1059500030040020E804002007030002280400208F
:105960002C040020240400202DE9F84F01460026D5
:1059700000204FF0FF3A471E00974FF0100CE04612
:1059800081460F69CF600F894FEAE77B07EB1B7BEE
:105990004FEA2B1BA7EB0B1B1FFA8BF4714F57F829
:1059A000247007F06047B7F1C04F7CD16D4F57F8B6
:1059B000247047F00047DFF8ACB14BF824705F4625
:1059C00057F8247027F07F43002532E0654F57F8E1
:1059D000257027F07F424AB1A54207D0614F57F8A2
:1059E000257007F04047B7F1404F00D01FE09A42C2
:1059F0000CD3B2FBF3F703FB17273FB9B2FBF3F766
:105A0000574513D2B2FBF3FAAC460FE09A420DD2DF
:105A1000B3FBF2F702FB173747B9B3FBF2FB009F6A
:105A2000BB4503D2B3FBF2F70097A84600BF6F1C3B
:105A3000BDB2102DCADBBCF1100F24D04A4F38681C
:105A400010E0C768B9440789CCEBCC0BDFF81CE148
:105A5000DEF800E00EEB8B0BBBF808B05F4500D121
:105A600002E000680028ECD100BF80B30769A7EB13
:105A70000907D1F810B0B7FBFBFE0BFB1E77ABEBB1
:105A80000707CF6047E0B8F1100F44D00027CF6080
:105A9000C8EBC807DFF8D4B0DBF800B00BEB870623
:105AA00030684DE0FFE72F4F57F8247007F060474C
:105AB000B7F1804F2FD12B4F57F8247047F0004794
:105AC000DFF8A0B04BF82470274F38681AE022E0C6
:105AD000D0F810B0D1F810E0F34512D107894FEAA1
